:400000000010002011000000890400008904000010B500F041FAC04670B5134C23688022D20213432360182000F00EFC22680F4B134023600E4A0F4B1A6010220E4B1A60F4
:40004000802212060D4B1A60002525600C4A0D4B1A600D49092000F0DBFB092000F0CCFB0A4B1D6070BDC04600010B40FFFFFBFF0600008004010B400C02024008010B403A
:400080001000008000000240590A00000C020B4010B572B60122284B1A7000240FE027486200131959000B00411889881A5AC31858880004104300F0E1F90134E4B2012C7F
:4000C000EDD91E490C311E48543000F0BDF999231B041C4A1360EE2109021B4A11601B4A13601B4A13601B4A136001221A4B1A6001321A4B1A601A490B783A329343142268
:400100001343DBB20B70174A117816230B43DBB213702023144A13601449154A1160154A1360C0225203144B1A60D8221201134B1A60FFF771FF10BD1C700F40900B00002F
:40014000100C0000000001400C00014000500F4010500F4030500F402000004000800F4001700F4000700F4000000440801D030008000440180004400801044008030440E2
:4001800010B5064C2378002B07D1054B002B02D0044800E000BF0123237010BD40010020000000008C0B0000084B10B5002B03D00749084800E000BF07480368002B00D1CB
:4001C00010BD064B002BFBD09847F9E700000000440100208C0B0000C00000200000000010B50A2000F0CEF90D2000F0CBF9202000F0C8F9452000F0C5F9722000F0C2F988
:40020000722000F0BFF96F2000F0BCF9722000F0B9F9202000F0B6F90A2000F0B3F90D2000F0B0F910BDC04670B543001B189A00254BD15C00290AD01A0043001D18AC00CB
:400240000139A15413199B68012098473AE04200121893001C4AD3185C78002C0AD0110043001D18AA008A18013C547093680020984727E0420012189300134AD3189B78AB
:40028000002B0AD0140042001518A9006118013B8B708B680120984714E0002912D1002C10D1002B0ED1084A41000C18A300D318DE782500A400A6541C795C705C79AB0014
:4002C000D3189C7070BDC0468401002010B5002404E02000FFF7A8FF0134E4B2022CF8D910BDC046F8B572B6104D46003718BC002C19E17022716371002413E00B496200BB
:4003000010198300CB18DE780500800046541879587058799870AB00CB189B68012098470134E4B2022CE9D962B6F8BD8401002010B51E4CA1793039C9B2E279303AD2B253
:40034000237A303BDBB220793038C0B22478412C02D0FFF745FF28E0144C6478542C02D0FFF73EFF21E0114CA4783D2C02D0FFF737FF1AE00D4CE478432C02D0FFF730FFA1
:4003800013E00A4C64792B2C02D0FFF729FF0CE0092908D8092A06D8092B04D8022802D8FFF7A0FF01E0FFF71BFF10BDA801002010B500F059F9C4B2002C16D0FF23184088
:4003C00000F0E0F8412C02D10022084B1A70074A13780749CC540133DBB21370092B04D1FFF7A6FF0022014B1A7010BDB1010020A801002010B5074B074A9A60074A5A61F4
:40040000074A1A6200F0A0F8064800F0C3F900F08FF910BD84010020E1070000C9070000B1070000CD02000010B562B6012000F0BFF9012000F0D4F9012000F0C5F9FFF7FB
:40044000D9FFFFF7B5FFFCE7F0B50025002711E0BB00C658F3B2FF22964308E06A008A181478A419527822700135013BDBB2002BF4D10137072FEBD9F0BDC04610B50A0081
:40048000002100F07BFB10BD10B500F04BFB03680C2B00D1FEE7FEE770B50F4E0F4D13E029686B68AC68002202E001C901C30432A242FAD1E868002202E0002102C3043280
:4004C0008242FAD11035013E002EE9D100F030FBFFF7AAFFFEE7C04601000000D80C000010B500230AE0032B03D89A000949505800E009489900094A885001332F2BF2D9BA
:40050000FFF7C6FD8022D205116801230B43136010BDC04600000000890400000000002010B500F08BF810BD10B500F039F810BD10B5044A1368802109060B431360FFF7FE
:40054000EFFF10BD0000074010B5064B1B78002B04D1FFF7E9FF0122024B1A70FFF7E8FF10BDC0465C010020014B18687047C04640030740024B1B680F2018407047C046A4
:4005800008030740044B1B680F221340082BF9D0024B18607047C0460802074040020740134A144B1A600023134A13601349144A1160144A14490A60072014490860144979
:4005C0000B6006381349086013490A60134A1360134A1360134A1360134A1360134A1360134A1360134A13601268134B1A8070470B000002000007404000074001000A0009
:400600004800074007000080000307400403074010030740440007400002074004020740880E0740C80E0740480F0740080F0740C80F0740880F07405E010020064A116857
:40064000064B0B40902109040B431360044B1A88044B1A607047C04600000140FFFF0FFF5E010020880F074010B5FFF783FF002802D0FFF779FF00E00020054B1A68D823CC
:400680009B001A4203D01A00014B1A60002010BDC00F0740034A117880235B420B43DBB21370704772000F40014B18707047C04683000F40014B1878C0B2704763000F4087
:4006C000014B18807047C04644100F40014B188880B2704784100F40014B18807047C04604100F4010B501E0FFF7F0FFFFF7E2FF0307F9D410BDC04610B50B4C2000FFF7BC
:40070000DFFF2000FFF7E8FF00F004FA074A117810230B43DBB2137000F000FAFFF7E2FF0020FFF7C1FF10BD7F3E000093000F4010B5064B1B78002B04D1FFF7DDFF0122E4
:40074000024B1A70FFF7A6FF10BDC04660010020014B18647047C0460000002010B5040000F0D8F9044A1368C0218B43A4011C43146000F0D3F910BD00E400E00122014BD8
:400780001A60704700E100E00122014B1A60704780E100E010B50400FFF7F6FF2000FFF7D7FF0320FFF7DAFFFFF7E8FF10BDC04604490A68D2B240239A4380011840104375
:4007C000086070470001044004490A68D2B204239A43800018401043086070470000044004490A68D2B208239A43C0001840104308607047000004401F2318401E3B8340F1
:40080000014A13607047C04600E100E001BE704770B504000D001F2802D90020FFF7F6FF1034A40080239B059C4664442068256070BDC04610B5034B1B7B584300F060F921
:4008400010BDC046C4000020F0B557464E46C0B483B0040000F05EF90190E71E2D2F74D83F4B1B78DBB29C4208D83E4B1B78DBB29A463D4B1B78DBB2994631E03B4B1B7819
:40088000DBB29C4208D83A4B1B78DBB29A46394B1B78DBB2994623E0374B1B78DBB29C4208D8364B1B78DBB29A46354B1B78DBB2994615E0334B1B78DBB29C4208D8324BB4
:4008C0001B78DBB29A46314B1B78DBB2994607E02F4B1B78DBB29A462E4B1B78DBB299462D4BDE5D2F2E09D92A2C07D919222B4B1A60052000F004F9192503E0274B1D6827
:400900003F231D40B54206D9234BDA5D234B1A60052000F0F5F81F4B9C4664442378DBB21F4A13601F4B52461A601F4B4A461A600520FFF77FFFB5420AD2174BDA5D174B44
:400940001A60052000F0DCF802E00020FFF75EFF019800F0E3F803B00CBC91469A46F0BDC0F1FF0FC1F1FF0FC2F1FF0FC3F1FF0FC4F1FF0FC5F1FF0FC6F1FF0FC7F1FF0F68
:40098000C8F1FF0FC9F1FF0FCAF1FF0FCBF1FF0FCCF1FF0FCDF1FF0F840C00002CFF0B4028FF0B401CFF0B4020FF0B40034B1868C0231B02184000D00120704700010B401C
:4009C00010B500F0A7F8044A1368C02109020B43136000F0A3F810BD00010B4010B500F099F808490A68084B1A408024E40122430A600A6813408022120213430B6000F04F
:400A00008DF810BD00010B40FF3FFFFF70B5050000F080F80400FFF7C9FF002803D0FFF7DDFF012100E0002108482840084A1568084B2B40184310601368012901D1FFF71B
:400A4000BFFF200000F06AF870BDC0460404040010020B40FBFBFBFF10B5244B1B685B0715D5234B1B685B070ED5224BD969042001401F4C22688A432260DA698243DA61E6
:400A80001B69002B00D098470420FFF7BFFF174B1B685B0518D5164B1B685B0510D5154BD9698022D2001140114802688A430260D969114A0A40DA615B69002B00D098478C
:400AC0008020C000FFF7A2FF084B1B685B030CD5074B1B685B0304D5064B9B69002B00D098478020C002FFF791FF10BD10020B40D800002064010020FFFBFFFF0000000028
:400B00000230800804D0C0460138FDD1C046C046C0467047EFF3108072B6704780F310887047C046014B18687047C0463C0100200E4B70B500251E000D4CE41AA410A5429F
:400B400004D0AB00F35898470135F8E700F0B2F8084B00251E00084CE41AA410A54204D0AB00F35898470135F8E770BDC00C0000C00C0000C00C0000C80C000003008218DA
:400B8000934202D019700133FAE770470000000000300F40000400400F400004830DD608DB04DD905F906404670A8790D630D830404549FF4AFF4BFF4F01501852805A092F
:400BC0005B085D995F016040624064406540668068806A806C806E8083019F01B101B701BF40C014C5ECC720C823C9FFCAFFCBFFCD83CE03CF01D018D401D90ADA0ADB0A86
:400C0000DC90DD99DF01E040E240E440E540E680E880EA80EC80EE80210222403340390241014340468049054E025101520259055A807680774078047F058102930A9804B2
:400C4000CC08CE01D089D210D60BDE321A056F048605C640DA80E05083049F04E28002011101000001000F4003300F4006310F4034320F401A330F4006400F4003410F4086
:400C800002600F40030405060708090A0B0C0E0F101112131415161718191B1C1D1E1F2021222325262728292A2B2E2F3031323334354300F8B5C046F8BC08BC9E4670478A
:400CC000A9010000E1040000F8B5C046F8BC08BC9E46704781010000E80C0000C0000020800000007800000000000000010000000000E02EC05D00001800000000366E0168
:400D0000040404000000000000000000000000000000000000000000000000000000000000000000B20C0000000000000000000000000000000000000000000000000000E9
:400D4000000000000000000000000000000000000000000000000000000000000000000000000000DC00002000000000000000000000000000000000000000000000000077
:400D80000000000000000000000000000000000000000000000000000000000000000000000000000000000000000000000000000000000000000000000000000000000033
:400DC00000000000000000000000000000000000000000000000000000000000000000000000000000000000000000000000000000000000000000000000000000000000F3
:400E000000000000000000000000000000000000000000000000000000000000000000000000000000000000000000000000000000000000000000000000000000000000B2
:400E40000000000000000000000000000000000000000000000000000000000000000000000000000000000000000000000000000000000000000000000000000000000072
:0200000490303A
:02000000774542
:0200000490402A
:200000000000000000000000000000000000000000000000000000000000000000000000E0
:0200000490501A
:0C000000000204C81193110104CC88D840
:0200000490600A
:0100000001FE
:00000001FF